{
  "contractName": "CertificateSystem",
  "abi": [
    {
      "inputs": [],
      "stateMutability": "nonpayable",
      "type": "constructor"
    },
    {
      "anonymous": false,
      "inputs": [
        {
          "indexed": false,
          "internalType": "string",
          "name": "certificateId",
          "type": "string"
        },
        {
          "indexed": false,
          "internalType": "address",
          "name": "issuedTo",
          "type": "address"
        }
      ],
      "name": "CertificateIssued",
      "type": "event"
    },
    {
      "anonymous": false,
      "inputs": [
        {
          "indexed": false,
          "internalType": "string",
          "name": "certificateId",
          "type": "string"
        },
        {
          "indexed": false,
          "internalType": "bool",
          "name": "valid",
          "type": "bool"
        }
      ],
      "name": "CertificateVerified",
      "type": "event"
    },
    {
      "anonymous": false,
      "inputs": [
        {
          "indexed": false,
          "internalType": "address",
          "name": "institutionAddress",
          "type": "address"
        },
        {
          "indexed": false,
          "internalType": "string",
          "name": "name",
          "type": "string"
        }
      ],
      "name": "InstitutionAdded",
      "type": "event"
    },
    {
      "anonymous": false,
      "inputs": [
        {
          "indexed": false,
          "internalType": "address",
          "name": "institutionAddress",
          "type": "address"
        }
      ],
      "name": "InstitutionRemoved",
      "type": "event"
    },
    {
      "inputs": [],
      "name": "admin",
      "outputs": [
        {
          "internalType": "address",
          "name": "",
          "type": "address"
        }
      ],
      "stateMutability": "view",
      "type": "function",
      "constant": true
    },
    {
      "inputs": [
        {
          "internalType": "address",
          "name": "",
          "type": "address"
        }
      ],
      "name": "institutions",
      "outputs": [
        {
          "internalType": "string",
          "name": "educationalInstitutionName",
          "type": "string"
        },
        {
          "internalType": "string",
          "name": "typeOfInstitution",
          "type": "string"
        },
        {
          "internalType": "uint256",
          "name": "taxCodeOfInstitution",
          "type": "uint256"
        },
        {
          "internalType": "string",
          "name": "addressOfInstitution",
          "type": "string"
        },
        {
          "internalType": "string",
          "name": "numberPhoneOfInstitution",
          "type": "string"
        },
        {
          "internalType": "string",
          "name": "emailOfInstitution",
          "type": "string"
        },
        {
          "internalType": "string",
          "name": "websiteOfInstitution",
          "type": "string"
        },
        {
          "internalType": "string",
          "name": "privacyPolicyOfInstitution",
          "type": "string"
        },
        {
          "internalType": "bool",
          "name": "isAuthorized",
          "type": "bool"
        }
      ],
      "stateMutability": "view",
      "type": "function",
      "constant": true
    },
    {
      "inputs": [
        {
          "internalType": "string",
          "name": "educationalInstitutionName",
          "type": "string"
        },
        {
          "internalType": "string",
          "name": "typeOfInstitution",
          "type": "string"
        },
        {
          "internalType": "uint256",
          "name": "taxCodeOfInstitution",
          "type": "uint256"
        },
        {
          "internalType": "string",
          "name": "addressOfInstitution",
          "type": "string"
        },
        {
          "internalType": "string",
          "name": "numberPhoneOfInstitution",
          "type": "string"
        },
        {
          "internalType": "string",
          "name": "emailOfInstitution",
          "type": "string"
        },
        {
          "internalType": "string",
          "name": "websiteOfInstitution",
          "type": "string"
        },
        {
          "internalType": "string",
          "name": "privacyPolicyOfInstitution",
          "type": "string"
        },
        {
          "internalType": "bool",
          "name": "isAuthorized",
          "type": "bool"
        }
      ],
      "name": "addInstitution",
      "outputs": [],
      "stateMutability": "nonpayable",
      "type": "function"
    },
    {
      "inputs": [
        {
          "internalType": "address",
          "name": "institutionAddress",
          "type": "address"
        }
      ],
      "name": "removeInstitution",
      "outputs": [],
      "stateMutability": "nonpayable",
      "type": "function"
    },
    {
      "inputs": [
        {
          "internalType": "address",
          "name": "student",
          "type": "address"
        },
        {
          "internalType": "string",
          "name": "studentName",
          "type": "string"
        },
        {
          "internalType": "string",
          "name": "studentEmail",
          "type": "string"
        },
        {
          "internalType": "string",
          "name": "degreeName",
          "type": "string"
        },
        {
          "internalType": "string",
          "name": "issuerName",
          "type": "string"
        },
        {
          "internalType": "uint256",
          "name": "issueDate",
          "type": "uint256"
        },
        {
          "internalType": "string",
          "name": "certificateId",
          "type": "string"
        },
        {
          "internalType": "string",
          "name": "signatureOfInstitution",
          "type": "string"
        },
        {
          "internalType": "string",
          "name": "degreeHash",
          "type": "string"
        },
        {
          "internalType": "string",
          "name": "degreeUrl",
          "type": "string"
        }
      ],
      "name": "issueCertificate",
      "outputs": [],
      "stateMutability": "nonpayable",
      "type": "function"
    },
    {
      "inputs": [
        {
          "internalType": "string",
          "name": "certificateId",
          "type": "string"
        }
      ],
      "name": "verifyCertificate",
      "outputs": [
        {
          "internalType": "bool",
          "name": "",
          "type": "bool"
        },
        {
          "components": [
            {
              "internalType": "string",
              "name": "studentName",
              "type": "string"
            },
            {
              "internalType": "string",
              "name": "studentEmail",
              "type": "string"
            },
            {
              "internalType": "string",
              "name": "degreeName",
              "type": "string"
            },
            {
              "internalType": "string",
              "name": "issuerName",
              "type": "string"
            },
            {
              "internalType": "uint256",
              "name": "issueDate",
              "type": "uint256"
            },
            {
              "internalType": "string",
              "name": "certificateId",
              "type": "string"
            },
            {
              "internalType": "string",
              "name": "signatureOfInstitution",
              "type": "string"
            },
            {
              "internalType": "string",
              "name": "degreeHash",
              "type": "string"
            },
            {
              "internalType": "string",
              "name": "degreeUrl",
              "type": "string"
            }
          ],
          "internalType": "struct CertificateSystem.Certificate",
          "name": "",
          "type": "tuple"
        }
      ],
      "stateMutability": "view",
      "type": "function",
      "constant": true
    },
    {
      "inputs": [
        {
          "internalType": "string",
          "name": "certificateId",
          "type": "string"
        }
      ],
      "name": "verifyAndEmit",
      "outputs": [],
      "stateMutability": "nonpayable",
      "type": "function"
    },
    {
      "inputs": [
        {
          "internalType": "address",
          "name": "user",
          "type": "address"
        }
      ],
      "name": "getUserCertificates",
      "outputs": [
        {
          "internalType": "string[]",
          "name": "",
          "type": "string[]"
        }
      ],
      "stateMutability": "view",
      "type": "function",
      "constant": true
    },
    {
      "inputs": [
        {
          "internalType": "address",
          "name": "institutionAddress",
          "type": "address"
        }
      ],
      "name": "getInstitutionInfo",
      "outputs": [
        {
          "internalType": "string",
          "name": "",
          "type": "string"
        },
        {
          "internalType": "bool",
          "name": "",
          "type": "bool"
        }
      ],
      "stateMutability": "view",
      "type": "function",
      "constant": true
    }
  ],
  "bytecode": "0x608060405234801561001057600080fd5b50336000806101000a81548173ffffffffffffffffffffffffffffffffffffffff021916908373ffffffffffffffffffffffffffffffffffffffff160217905550612549806100606000396000f3fe608060405234801561001057600080fd5b50600436106100935760003560e01c80638944323f116100665780638944323f146101315780638b23d8751461014d578063b2d9767f1461017e578063e23329bb146101b6578063f851a440146101d257610093565b80630385bd18146100985780631cd9357e146100c857806351d1df47146100e45780638747d5ed14610115575b600080fd5b6100b260048036038101906100ad91906119c2565b6101f0565b6040516100bf9190612101565b60405180910390f35b6100e260048036038101906100dd9190611bc7565b610308565b005b6100fe60048036038101906100f991906119c2565b61055a565b60405161010c929190612183565b60405180910390f35b61012f600480360381019061012a91906119c2565b6109e4565b005b61014b60048036038101906101469190611b86565b610b7a565b005b61016760048036038101906101629190611b86565b610bc5565b604051610175929190612123565b60405180910390f35b610198600480360381019061019391906119c2565b6110b0565b6040516101ad999897969594939291906121b3565b60405180910390f35b6101d060048036038101906101cb91906119eb565b6114c3565b005b6101da6117c8565b6040516101e791906120b6565b60405180910390f35b6060600360008373ffffffffffffffffffffffffffffffffffffffff1673ffffffffffffffffffffffffffffffffffffffff168152602001908152602001600020805480602002602001604051908101604052809291908181526020016000905b828210156102fd5783829060005260206000200180546102709061242d565b80601f016020809104026020016040519081016040528092919081815260200182805461029c9061242d565b80156102e95780601f106102be576101008083540402835291602001916102e9565b820191906000526020600020905b8154815290600101906020018083116102cc57829003601f168201915b505050505081526020019060010190610251565b505050509050919050565b60008054906101000a900473ffffffffffffffffffffffffffffffffffffffff1673ffffffffffffffffffffffffffffffffffffffff163373ffffffffffffffffffffffffffffffffffffffff1614610396576040517f08c379a000000000000000000000000000000000000000000000000000000000815260040161038d90612291565b60405180910390fd5b60003390506040518061012001604052808b81526020018a8152602001898152602001888152602001878152602001868152602001858152602001848152602001831515815250600160008373ffffffffffffffffffffffffffffffffffffffff1673ffffffffffffffffffffffffffffffffffffffff16815260200190815260200160002060008201518160000190805190602001906104389291906117ec565b5060208201518160010190805190602001906104559291906117ec565b5060408201518160020155606082015181600301908051906020019061047c9291906117ec565b5060808201518160040190805190602001906104999291906117ec565b5060a08201518160050190805190602001906104b69291906117ec565b5060c08201518160060190805190602001906104d39291906117ec565b5060e08201518160070190805190602001906104f09291906117ec565b506101008201518160080160006101000a81548160ff0219169083151502179055509050507f53c8ba766789150b95d79fcf2e244a0f2638aaa6814f679f574a4bfe44ba8df4818b6040516105469291906120d1565b60405180910390a150505050505050505050565b6060600080600160008573ffffffffffffffffffffffffffffffffffffffff1673ffffffffffffffffffffffffffffffffffffffff168152602001908152602001600020604051806101200160405290816000820180546105ba9061242d565b80601f01602080910402602001604051908101604052809291908181526020018280546105e69061242d565b80156106335780601f1061060857610100808354040283529160200191610633565b820191906000526020600020905b81548152906001019060200180831161061657829003601f168201915b5050505050815260200160018201805461064c9061242d565b80601f01602080910402602001604051908101604052809291908181526020018280546106789061242d565b80156106c55780601f1061069a576101008083540402835291602001916106c5565b820191906000526020600020905b8154815290600101906020018083116106a857829003601f168201915b50505050508152602001600282015481526020016003820180546106e89061242d565b80601f01602080910402602001604051908101604052809291908181526020018280546107149061242d565b80156107615780601f1061073657610100808354040283529160200191610761565b820191906000526020600020905b81548152906001019060200180831161074457829003601f168201915b5050505050815260200160048201805461077a9061242d565b80601f01602080910402602001604051908101604052809291908181526020018280546107a69061242d565b80156107f35780601f106107c8576101008083540402835291602001916107f3565b820191906000526020600020905b8154815290600101906020018083116107d657829003601f168201915b5050505050815260200160058201805461080c9061242d565b80601f01602080910402602001604051908101604052809291908181526020018280546108389061242d565b80156108855780601f1061085a57610100808354040283529160200191610885565b820191906000526020600020905b81548152906001019060200180831161086857829003601f168201915b5050505050815260200160068201805461089e9061242d565b80601f01602080910402602001604051908101604052809291908181526020018280546108ca9061242d565b80156109175780601f106108ec57610100808354040283529160200191610917565b820191906000526020600020905b8154815290600101906020018083116108fa57829003601f168201915b505050505081526020016007820180546109309061242d565b80601f016020809104026020016040519081016040528092919081815260200182805461095c9061242d565b80156109a95780601f1061097e576101008083540402835291602001916109a9565b820191906000526020600020905b81548152906001019060200180831161098c57829003601f168201915b505050505081526020016008820160009054906101000a900460ff161515151581525050905080600001518161010001519250925050915091565b60008054906101000a900473ffffffffffffffffffffffffffffffffffffffff1673ffffffffffffffffffffffffffffffffffffffff163373ffffffffffffffffffffffffffffffffffffffff1614610a72576040517f08c379a0000000000000000000000000000000000000000000000000000000008152600401610a6990612291565b60405180910390fd5b600160008273ffffffffffffffffffffffffffffffffffffffff1673ffffffffffffffffffffffffffffffffffffffff16815260200190815260200160002060008082016000610ac29190611872565b600182016000610ad29190611872565b6002820160009055600382016000610aea9190611872565b600482016000610afa9190611872565b600582016000610b0a9190611872565b600682016000610b1a9190611872565b600782016000610b2a9190611872565b6008820160006101000a81549060ff021916905550507f1b0b878d06167e60e076b932df41de2b519d804c80445961e705ffbc98091f8781604051610b6f91906120b6565b60405180910390a150565b6000610b8582610bc5565b5090507f1a48be0d899f93d12824892836eea7aee0260894c1847adb8b7f4c9f86aaee378282604051610bb9929190612183565b60405180910390a15050565b6000610bcf6118b2565b6000600284604051610be1919061209f565b908152602001604051809103902060405180610120016040529081600082018054610c0b9061242d565b80601f0160208091040260200160405190810160405280929190818152602001828054610c379061242d565b8015610c845780601f10610c5957610100808354040283529160200191610c84565b820191906000526020600020905b815481529060010190602001808311610c6757829003601f168201915b50505050508152602001600182018054610c9d9061242d565b80601f0160208091040260200160405190810160405280929190818152602001828054610cc99061242d565b8015610d165780601f10610ceb57610100808354040283529160200191610d16565b820191906000526020600020905b815481529060010190602001808311610cf957829003601f168201915b50505050508152602001600282018054610d2f9061242d565b80601f0160208091040260200160405190810160405280929190818152602001828054610d5b9061242d565b8015610da85780601f10610d7d57610100808354040283529160200191610da8565b820191906000526020600020905b815481529060010190602001808311610d8b57829003601f168201915b50505050508152602001600382018054610dc19061242d565b80601f0160208091040260200160405190810160405280929190818152602001828054610ded9061242d565b8015610e3a5780601f10610e0f57610100808354040283529160200191610e3a565b820191906000526020600020905b815481529060010190602001808311610e1d57829003601f168201915b5050505050815260200160048201548152602001600582018054610e5d9061242d565b80601f0160208091040260200160405190810160405280929190818152602001828054610e899061242d565b8015610ed65780601f10610eab57610100808354040283529160200191610ed6565b820191906000526020600020905b815481529060010190602001808311610eb957829003601f168201915b50505050508152602001600682018054610eef9061242d565b80601f0160208091040260200160405190810160405280929190818152602001828054610f1b9061242d565b8015610f685780601f10610f3d57610100808354040283529160200191610f68565b820191906000526020600020905b815481529060010190602001808311610f4b57829003601f168201915b50505050508152602001600782018054610f819061242d565b80601f0160208091040260200160405190810160405280929190818152602001828054610fad9061242d565b8015610ffa5780601f10610fcf57610100808354040283529160200191610ffa565b820191906000526020600020905b815481529060010190602001808311610fdd57829003601f168201915b505050505081526020016008820180546110139061242d565b80601f016020809104026020016040519081016040528092919081815260200182805461103f9061242d565b801561108c5780601f106110615761010080835404028352916020019161108c565b820191906000526020600020905b81548152906001019060200180831161106f57829003601f168201915b50505050508152505090506000808260800151141590508082935093505050915091565b60016020528060005260406000206000915090508060000180546110d39061242d565b80601f01602080910402602001604051908101604052809291908181526020018280546110ff9061242d565b801561114c5780601f106111215761010080835404028352916020019161114c565b820191906000526020600020905b81548152906001019060200180831161112f57829003601f168201915b5050505050908060010180546111619061242d565b80601f016020809104026020016040519081016040528092919081815260200182805461118d9061242d565b80156111da5780601f106111af576101008083540402835291602001916111da565b820191906000526020600020905b8154815290600101906020018083116111bd57829003601f168201915b5050505050908060020154908060030180546111f59061242d565b80601f01602080910402602001604051908101604052809291908181526020018280546112219061242d565b801561126e5780601f106112435761010080835404028352916020019161126e565b820191906000526020600020905b81548152906001019060200180831161125157829003601f168201915b5050505050908060040180546112839061242d565b80601f01602080910402602001604051908101604052809291908181526020018280546112af9061242d565b80156112fc5780601f106112d1576101008083540402835291602001916112fc565b820191906000526020600020905b8154815290600101906020018083116112df57829003601f168201915b5050505050908060050180546113119061242d565b80601f016020809104026020016040519081016040528092919081815260200182805461133d9061242d565b801561138a5780601f1061135f5761010080835404028352916020019161138a565b820191906000526020600020905b81548152906001019060200180831161136d57829003601f168201915b50505050509080600601805461139f9061242d565b80601f01602080910402602001604051908101604052809291908181526020018280546113cb9061242d565b80156114185780601f106113ed57610100808354040283529160200191611418565b820191906000526020600020905b8154815290600101906020018083116113fb57829003601f168201915b50505050509080600701805461142d9061242d565b80601f01602080910402602001604051908101604052809291908181526020018280546114599061242d565b80156114a65780601f1061147b576101008083540402835291602001916114a6565b820191906000526020600020905b81548152906001019060200180831161148957829003601f168201915b5050505050908060080160009054906101000a900460ff16905089565b600160003373ffffffffffffffffffffffffffffffffffffffff1673ffffffffffffffffffffffffffffffffffffffff16815260200190815260200160002060080160009054906101000a900460ff16611552576040517f08c379a0000000000000000000000000000000000000000000000000000000008152600401611549906122b1565b60405180910390fd5b6000600285604051611564919061209f565b908152602001604051809103902060040154146115b6576040517f08c379a00000000000000000000000000000000000000000000000000000000081526004016115ad90612271565b60405180910390fd5b6040518061012001604052808a815260200189815260200188815260200187815260200186815260200185815260200184815260200183815260200182815250600285604051611606919061209f565b908152602001604051809103902060008201518160000190805190602001906116309291906117ec565b50602082015181600101908051906020019061164d9291906117ec565b50604082015181600201908051906020019061166a9291906117ec565b5060608201518160030190805190602001906116879291906117ec565b506080820151816004015560a08201518160050190805190602001906116ae9291906117ec565b5060c08201518160060190805190602001906116cb9291906117ec565b5060e08201518160070190805190602001906116e89291906117ec565b506101008201518160080190805190602001906117069291906117ec565b50905050600360008b73ffffffffffffffffffffffffffffffffffffffff1673ffffffffffffffffffffffffffffffffffffffff168152602001908152602001600020849080600181540180825580915050600190039060005260206000200160009091909190915090805190602001906117829291906117ec565b507fada8a8d27187fe2bc19217fb8e0301fa8380a4d850748240b8d735f2a8fc0621848b6040516117b4929190612153565b60405180910390a150505050505050505050565b60008054906101000a900473ffffffffffffffffffffffffffffffffffffffff1681565b8280546117f89061242d565b90600052602060002090601f01602090048101928261181a5760008555611861565b82601f1061183357805160ff1916838001178555611861565b82800160010185558215611861579182015b82811115611860578251825591602001919060010190611845565b5b50905061186e91906118fe565b5090565b50805461187e9061242d565b6000825580601f1061189057506118af565b601f0160209004906000526020600020908101906118ae91906118fe565b5b50565b6040518061012001604052806060815260200160608152602001606081526020016060815260200160008152602001606081526020016060815260200160608152602001606081525090565b5b808211156119175760008160009055506001016118ff565b5090565b600061192e61192984612302565b6122d1565b90508281526020810184848401111561194657600080fd5b6119518482856123eb565b509392505050565b600081359050611968816124ce565b92915050565b60008135905061197d816124e5565b92915050565b600082601f83011261199457600080fd5b81356119a484826020860161191b565b91505092915050565b6000813590506119bc816124fc565b92915050565b6000602082840312156119d457600080fd5b60006119e284828501611959565b91505092915050565b6000806000806000806000806000806101408b8d031215611a0b57600080fd5b6000611a198d828e01611959565b9a505060208b013567ffffffffffffffff811115611a3657600080fd5b611a428d828e01611983565b99505060408b013567ffffffffffffffff811115611a5f57600080fd5b611a6b8d828e01611983565b98505060608b013567ffffffffffffffff811115611a8857600080fd5b611a948d828e01611983565b97505060808b013567ffffffffffffffff811115611ab157600080fd5b611abd8d828e01611983565b96505060a0611ace8d828e016119ad565b95505060c08b013567ffffffffffffffff811115611aeb57600080fd5b611af78d828e01611983565b94505060e08b013567ffffffffffffffff811115611b1457600080fd5b611b208d828e01611983565b9350506101008b013567ffffffffffffffff811115611b3e57600080fd5b611b4a8d828e01611983565b9250506101208b013567ffffffffffffffff811115611b6857600080fd5b611b748d828e01611983565b9150509295989b9194979a5092959850565b600060208284031215611b9857600080fd5b600082013567ffffffffffffffff811115611bb257600080fd5b611bbe84828501611983565b91505092915050565b60008060008060008060008060006101208a8c031215611be657600080fd5b60008a013567ffffffffffffffff811115611c0057600080fd5b611c0c8c828d01611983565b99505060208a013567ffffffffffffffff811115611c2957600080fd5b611c358c828d01611983565b9850506040611c468c828d016119ad565b97505060608a013567ffffffffffffffff811115611c6357600080fd5b611c6f8c828d01611983565b96505060808a013567ffffffffffffffff811115611c8c57600080fd5b611c988c828d01611983565b95505060a08a013567ffffffffffffffff811115611cb557600080fd5b611cc18c828d01611983565b94505060c08a013567ffffffffffffffff811115611cde57600080fd5b611cea8c828d01611983565b93505060e08a013567ffffffffffffffff811115611d0757600080fd5b611d138c828d01611983565b925050610100611d258c828d0161196e565b9150509295985092959850929598565b6000611d418383611ddc565b905092915050565b611d52816123a3565b82525050565b6000611d6382612342565b611d6d8185612365565b935083602082028501611d7f85612332565b8060005b85811015611dbb5784840389528151611d9c8582611d35565b9450611da783612358565b925060208a01995050600181019050611d83565b50829750879550505050505092915050565b611dd6816123b5565b82525050565b6000611de78261234d565b611df18185612376565b9350611e018185602086016123fa565b611e0a816124bd565b840191505092915050565b6000611e208261234d565b611e2a8185612387565b9350611e3a8185602086016123fa565b611e43816124bd565b840191505092915050565b6000611e598261234d565b611e638185612398565b9350611e738185602086016123fa565b80840191505092915050565b6000611e8c601b83612387565b91507f436572746966696361746520616c7265616479206578697374732e00000000006000830152602082019050919050565b6000611ecc602383612387565b91507f4f6e6c792061646d696e2063616e20706572666f726d2074686973206163746960008301527f6f6e2e00000000000000000000000000000000000000000000000000000000006020830152604082019050919050565b6000611f32603583612387565b91507f4f6e6c7920617574686f72697a656420696e737469747574696f6e732063616e60008301527f20706572666f726d207468697320616374696f6e2e00000000000000000000006020830152604082019050919050565b6000610120830160008301518482036000860152611fa98282611ddc565b91505060208301518482036020860152611fc38282611ddc565b91505060408301518482036040860152611fdd8282611ddc565b91505060608301518482036060860152611ff78282611ddc565b915050608083015161200c6080860182612081565b5060a083015184820360a08601526120248282611ddc565b91505060c083015184820360c086015261203e8282611ddc565b91505060e083015184820360e08601526120588282611ddc565b9150506101008301518482036101008601526120748282611ddc565b9150508091505092915050565b61208a816123e1565b82525050565b612099816123e1565b82525050565b60006120ab8284611e4e565b915081905092915050565b60006020820190506120cb6000830184611d49565b92915050565b60006040820190506120e66000830185611d49565b81810360208301526120f88184611e15565b90509392505050565b6000602082019050818103600083015261211b8184611d58565b905092915050565b60006040820190506121386000830185611dcd565b818103602083015261214a8184611f8b565b90509392505050565b6000604082019050818103600083015261216d8185611e15565b905061217c6020830184611d49565b9392505050565b6000604082019050818103600083015261219d8185611e15565b90506121ac6020830184611dcd565b9392505050565b60006101208201905081810360008301526121ce818c611e15565b905081810360208301526121e2818b611e15565b90506121f1604083018a612090565b81810360608301526122038189611e15565b905081810360808301526122178188611e15565b905081810360a083015261222b8187611e15565b905081810360c083015261223f8186611e15565b905081810360e08301526122538185611e15565b9050612263610100830184611dcd565b9a9950505050505050505050565b6000602082019050818103600083015261228a81611e7f565b9050919050565b600060208201905081810360008301526122aa81611ebf565b9050919050565b600060208201905081810360008301526122ca81611f25565b9050919050565b6000604051905081810181811067ffffffffffffffff821117156122f8576122f761248e565b5b8060405250919050565b600067ffffffffffffffff82111561231d5761231c61248e565b5b601f19601f8301169050602081019050919050565b6000819050602082019050919050565b600081519050919050565b600081519050919050565b6000602082019050919050565b600082825260208201905092915050565b600082825260208201905092915050565b600082825260208201905092915050565b600081905092915050565b60006123ae826123c1565b9050919050565b60008115159050919050565b600073ffffffffffffffffffffffffffffffffffffffff82169050919050565b6000819050919050565b82818337600083830152505050565b60005b838110156124185780820151818401526020810190506123fd565b83811115612427576000848401525b50505050565b6000600282049050600182168061244557607f821691505b602082108114156124595761245861245f565b5b50919050565b7f4e487b7100000000000000000000000000000000000000000000000000000000600052602260045260246000fd5b7f4e487b7100000000000000000000000000000000000000000000000000000000600052604160045260246000fd5b6000601f19601f8301169050919050565b6124d7816123a3565b81146124e257600080fd5b50565b6124ee816123b5565b81146124f957600080fd5b50565b612505816123e1565b811461251057600080fd5b5056fea26469706673582212200181bf48411dcac9f9d6af5c520d933ae41dd9252d6a5f34b6903cda745d702964736f6c63430008000033",
  "immutableReferences": {},
  "source": "// SPDX-License-Identifier: MIT\r\npragma solidity ^0.8.0;\r\n\r\ncontract CertificateSystem {\r\n    // Struct to represent a certificate\r\n    struct Certificate {\r\n        string studentName; // Name of the student\r\n        string studentEmail; // Email of the student\r\n        string degreeName; // Name of the degree\r\n        string issuerName; // Name of the institution issuing the certificate\r\n        uint256 issueDate; // Date of issuance\r\n        string certificateId; // Unique ID of the certificate\r\n        string signatureOfInstitution; // Signature of the institution\r\n        string degreeHash; // Hash of the degree\r\n        string degreeUrl; // URL of the degree\r\n    }\r\n\r\n    // Struct to represent an educational institution\r\n    struct EducationalInstitution {\r\n        string educationalInstitutionName; // Name of the institution\r\n        string typeOfInstitution; // Type of the institution\r\n        uint256 taxCodeOfInstitution; // Tax code of the institution\r\n        string addressOfInstitution; // Address of the institution\r\n        string numberPhoneOfInstitution; // Phone number of the institution\r\n        string emailOfInstitution; // Email of the institution\r\n        string websiteOfInstitution; // Website of the institution\r\n        string privacyPolicyOfInstitution; // Privacy policy of the institution\r\n        bool isAuthorized; // Flag to indicate if the institution is authorized\r\n    }\r\n\r\n    // Address of the contract admin\r\n    address public admin;\r\n\r\n    // Mapping of addresses to educational institutions\r\n    mapping(address => EducationalInstitution) public institutions;\r\n\r\n    // Mapping of certificate IDs to certificates\r\n    mapping(string => Certificate) private certificates;\r\n\r\n    // Mapping of addresses to arrays of certificate IDs\r\n    mapping(address => string[]) private userCertificates;\r\n\r\n    // Event emitted when a certificate is issued\r\n    event CertificateIssued(string certificateId, address issuedTo);\r\n\r\n    // Event emitted when a certificate is verified\r\n    event CertificateVerified(string certificateId, bool valid);\r\n\r\n    // Event emitted when an institution is added\r\n    event InstitutionAdded(address institutionAddress, string name);\r\n\r\n    // Event emitted when an institution is removed\r\n    event InstitutionRemoved(address institutionAddress);\r\n\r\n    // Constructor function, sets the admin address\r\n    constructor() {\r\n        admin = msg.sender;\r\n    }\r\n\r\n    // Modifier to restrict access to only the admin\r\n    modifier onlyAdmin() {\r\n        require(msg.sender == admin, \"Only admin can perform this action.\");\r\n        _;\r\n    }\r\n\r\n    // Modifier to restrict access to only authorized institutions\r\n    modifier onlyInstitution() {\r\n        require(\r\n            institutions[msg.sender].isAuthorized,\r\n            \"Only authorized institutions can perform this action.\"\r\n        );\r\n        _;\r\n    }\r\n\r\n    // Function to add an institution\r\n    function addInstitution(\r\n        string memory educationalInstitutionName, // Name of the institution\r\n        string memory typeOfInstitution, // Type of the institution\r\n        uint256 taxCodeOfInstitution, // Tax code of the institution\r\n        string memory addressOfInstitution, // Address of the institution\r\n        string memory numberPhoneOfInstitution, // Phone number of the institution\r\n        string memory emailOfInstitution, // Email of the institution\r\n        string memory websiteOfInstitution, // Website of the institution\r\n        string memory privacyPolicyOfInstitution, // Privacy policy of the institution\r\n        bool isAuthorized // Flag to indicate if the institution is authorized\r\n    ) public onlyAdmin {\r\n        address institutionAddress = msg.sender; // Declare and assign the institutionAddress variable\r\n        institutions[institutionAddress] = EducationalInstitution(\r\n            educationalInstitutionName,\r\n            typeOfInstitution,\r\n            taxCodeOfInstitution,\r\n            addressOfInstitution,\r\n            numberPhoneOfInstitution,\r\n            emailOfInstitution,\r\n            websiteOfInstitution,\r\n            privacyPolicyOfInstitution,\r\n            isAuthorized\r\n        );\r\n        emit InstitutionAdded(institutionAddress, educationalInstitutionName);\r\n    }\r\n\r\n    // Function to remove an institution\r\n    function removeInstitution(address institutionAddress) public onlyAdmin {\r\n        delete institutions[institutionAddress];\r\n        emit InstitutionRemoved(institutionAddress);\r\n    }\r\n\r\n    // Function to issue a certificate\r\n    function issueCertificate(\r\n        address student,\r\n        string memory studentName,\r\n        string memory studentEmail,\r\n        string memory degreeName,\r\n        string memory issuerName,\r\n        uint256 issueDate,\r\n        string memory certificateId,\r\n        string memory signatureOfInstitution,\r\n        string memory degreeHash,\r\n        string memory degreeUrl\r\n    ) public onlyInstitution {\r\n        require(\r\n            certificates[certificateId].issueDate == 0,\r\n            \"Certificate already exists.\"\r\n        );\r\n\r\n        certificates[certificateId] = Certificate(\r\n            studentName,\r\n            studentEmail,\r\n            degreeName,\r\n            issuerName,\r\n            issueDate,\r\n            certificateId,\r\n            signatureOfInstitution,\r\n            degreeHash,\r\n            degreeUrl\r\n        );\r\n\r\n        userCertificates[student].push(certificateId);\r\n\r\n        emit CertificateIssued(certificateId, student);\r\n    }\r\n\r\n    // Function to verify a certificate\r\n    function verifyCertificate(\r\n        string memory certificateId\r\n    ) public view returns (bool, Certificate memory) {\r\n        Certificate memory cert = certificates[certificateId];\r\n        bool valid = cert.issueDate != 0;\r\n        return (valid, cert);\r\n    }\r\n\r\n    // Function to verify a certificate and emit an event\r\n    function verifyAndEmit(string memory certificateId) public {\r\n        (bool valid, ) = verifyCertificate(certificateId);\r\n        emit CertificateVerified(certificateId, valid);\r\n    }\r\n\r\n    // Function to get the certificates of a user\r\n    function getUserCertificates(\r\n        address user\r\n    ) public view returns (string[] memory) {\r\n        return userCertificates[user];\r\n    }\r\n\r\n    // Function to get the information of an institution\r\n    function getInstitutionInfo(\r\n        address institutionAddress\r\n    ) public view returns (string memory, bool) {\r\n        EducationalInstitution memory institution = institutions[\r\n            institutionAddress\r\n        ];\r\n        return (\r\n            institution.educationalInstitutionName,\r\n            institution.isAuthorized\r\n        );\r\n    }\r\n}\r\n",
  "sourcePath": "E:\\CN\\NCKH\\BLOCKCHAIN_CODE_MAIN\\blockchain-certification-system\\blockchain\\contracts\\Certificate.sol",
  "compiler": {
    "name": "solc",
    "version": "0.8.0+commit.c7dfd78e.Emscripten.clang"
  },
  "schemaVersion": "3.4.16",
  "updatedAt": "2024-09-12T09:08:51.400Z",
  "networkType": "ethereum",
  "devdoc": {
    "kind": "dev",
    "methods": {},
    "version": 1
  },
  "userdoc": {
    "kind": "user",
    "methods": {},
    "version": 1
  }
}